{
  "_format": "hh-sol-artifact-1",
  "contractName": "Token",
  "sourceName": "contracts/Token.sol",
  "abi": [
    {
      "inputs": [],
      "stateMutability": "nonpayable",
      "type": "constructor"
    },
    {
      "inputs": [],
      "name": "getBalance",
      "outputs": [
        {
          "internalType": "uint256",
          "name": "",
          "type": "uint256"
        }
      ],
      "stateMutability": "view",
      "type": "function"
    },
    {
      "inputs": [],
      "name": "maxSupply",
      "outputs": [
        {
          "internalType": "uint256",
          "name": "",
          "type": "uint256"
        }
      ],
      "stateMutability": "view",
      "type": "function"
    },
    {
      "inputs": [],
      "name": "name",
      "outputs": [
        {
          "internalType": "string",
          "name": "",
          "type": "string"
        }
      ],
      "stateMutability": "view",
      "type": "function"
    },
    {
      "inputs": [],
      "name": "tokenSymbol",
      "outputs": [
        {
          "internalType": "string",
          "name": "",
          "type": "string"
        }
      ],
      "stateMutability": "view",
      "type": "function"
    },
    {
      "inputs": [
        {
          "internalType": "address",
          "name": "to",
          "type": "address"
        },
        {
          "internalType": "uint256",
          "name": "amount",
          "type": "uint256"
        }
      ],
      "name": "transfer",
      "outputs": [],
      "stateMutability": "payable",
      "type": "function"
    }
  ],
  "bytecode": "0x60806040526040518060400160405280600a81526020017f7072616b73746f6b656e000000000000000000000000000000000000000000008152506000908051906020019061004f9291906100fb565b506040518060400160405280600581526020017f5052414b530000000000000000000000000000000000000000000000000000008152506001908051906020019061009b9291906100fb565b50620186a06002553480156100af57600080fd5b50600254600360003373ffffffffffffffffffffffffffffffffffffffff1673ffffffffffffffffffffffffffffffffffffffff168152602001908152602001600020819055506101ff565b8280546101079061019e565b90600052602060002090601f0160209004810192826101295760008555610170565b82601f1061014257805160ff1916838001178555610170565b82800160010185558215610170579182015b8281111561016f578251825591602001919060010190610154565b5b50905061017d9190610181565b5090565b5b8082111561019a576000816000905550600101610182565b5090565b600060028204905060018216806101b657607f821691505b602082108114156101ca576101c96101d0565b5b50919050565b7f4e487b7100000000000000000000000000000000000000000000000000000000600052602260045260246000fd5b6107238061020e6000396000f3fe60806040526004361061004a5760003560e01c806306fdde031461004f57806312065fe01461007a5780637b61c320146100a5578063a9059cbb146100d0578063d5abeb01146100ec575b600080fd5b34801561005b57600080fd5b50610064610117565b6040516100719190610483565b60405180910390f35b34801561008657600080fd5b5061008f6101a5565b60405161009c91906104c5565b60405180910390f35b3480156100b157600080fd5b506100ba6101ec565b6040516100c79190610483565b60405180910390f35b6100ea60048036038101906100e591906103dc565b61027a565b005b3480156100f857600080fd5b506101016103ac565b60405161010e91906104c5565b60405180910390f35b60008054610124906105f5565b80601f0160208091040260200160405190810160405280929190818152602001828054610150906105f5565b801561019d5780601f106101725761010080835404028352916020019161019d565b820191906000526020600020905b81548152906001019060200180831161018057829003601f168201915b505050505081565b6000600360003373ffffffffffffffffffffffffffffffffffffffff1673ffffffffffffffffffffffffffffffffffffffff16815260200190815260200160002054905090565b600180546101f9906105f5565b80601f0160208091040260200160405190810160405280929190818152602001828054610225906105f5565b80156102725780601f1061024757610100808354040283529160200191610272565b820191906000526020600020905b81548152906001019060200180831161025557829003601f168201915b505050505081565b6000600360003373ffffffffffffffffffffffffffffffffffffffff1673ffffffffffffffffffffffffffffffffffffffff16815260200190815260200160002054116102fc576040517f08c379a00000000000000000000000000000000000000000000000000000000081526004016102f3906104a5565b60405180910390fd5b80600360003373ffffffffffffffffffffffffffffffffffffffff1673ffffffffffffffffffffffffffffffffffffffff168152602001908152602001600020600082825461034b9190610552565b9250508190555080600360008473ffffffffffffffffffffffffffffffffffffffff1673ffffffffffffffffffffffffffffffffffffffff16815260200190815260200160002060008282546103a191906104fc565b925050819055505050565b60025481565b6000813590506103c1816106bf565b92915050565b6000813590506103d6816106d6565b92915050565b600080604083850312156103ef57600080fd5b60006103fd858286016103b2565b925050602061040e858286016103c7565b9150509250929050565b6000610423826104e0565b61042d81856104eb565b935061043d8185602086016105c2565b61044681610685565b840191505092915050565b600061045e6017836104eb565b915061046982610696565b602082019050919050565b61047d816105b8565b82525050565b6000602082019050818103600083015261049d8184610418565b905092915050565b600060208201905081810360008301526104be81610451565b9050919050565b60006020820190506104da6000830184610474565b92915050565b600081519050919050565b600082825260208201905092915050565b6000610507826105b8565b9150610512836105b8565b9250827fffffffffffffffffffffffffffffffffffffffffffffffffffffffffffffffff0382111561054757610546610627565b5b828201905092915050565b600061055d826105b8565b9150610568836105b8565b92508282101561057b5761057a610627565b5b828203905092915050565b600061059182610598565b9050919050565b600073ffffffffffffffffffffffffffffffffffffffff82169050919050565b6000819050919050565b60005b838110156105e05780820151818401526020810190506105c5565b838111156105ef576000848401525b50505050565b6000600282049050600182168061060d57607f821691505b6020821081141561062157610620610656565b5b50919050565b7f4e487b7100000000000000000000000000000000000000000000000000000000600052601160045260246000fd5b7f4e487b7100000000000000000000000000000000000000000000000000000000600052602260045260246000fd5b6000601f19601f8301169050919050565b7f4e6f7420656e6f75676820746f6b656e20737570706c79000000000000000000600082015250565b6106c881610586565b81146106d357600080fd5b50565b6106df816105b8565b81146106ea57600080fd5b5056fea2646970667358221220b8d760cb61b81c66b40a5752941a81e50354f6fccb76cb8df0ef6fc39402d6d064736f6c63430008030033",
  "linkReferences": {},
  "deployedLinkReferences": {}
}